:100000000C941F010C943C010C943C010C943C0199
:100010000C943C010C943C010C943C010C943C016C
:100020000C943C010C943C010C947C1B0C944F1CD4
:100030000C9499160C943C010C943C010C943C01DA
:100040000C943C010C943C010C943C010C943C013C
:100050000C943C010C9431170C943C010C943C0121
:100060000C943C010C943C010C943C010C943C011C
:100070000C943C010C943C010C943C010C943C010C
:100080000C943C010C943C010C943C010C943C01FC
:100090000C943C010C943C010C943C010C943C01EC
:1000A0000C943C010C943C010C943C0153002B003B
:1000B00000002A005F006000610054005C005D00E9
:1000C0005E00550059005A005B000000620000000D
:1000D000630058000E03740061006200700061004C
:1000E000640000000C0350006500640072006F00A3
:1000F00000000403090409023B00020100A0FA0900
:100100000400000103010100092111010001224442
:100110000007058103080001090401000103000034
:100120000009211101000122B60007058203200009
:10013000011201000200000008EDFE0000000101B4
:1001400002000105010902A10185020901A10005C2
:100150000919012908150025019508750181020575
:1001600001093009311581257F950275088106093D
:10017000381581257F950175088106050C0A38021E
:100180001581257F950175088106C0C0050109808C
:10019000A101850319012AB700150126B7009501B1
:1001A00075108100C0050C0901A101850419012AFF
:1001B000A002150126A002950175108100C005015D
:1001C0000906A1018506050719E029E715002501A3
:1001D0009508750181020507190029EF1500250111
:1001E00095F075018102050819012905950575012C
:1001F0009102950175039101C005010906A1010550
:100200000719E029E7150025019508750181029578
:1002100001750881010507190029FF150026FF0057
:1002200095067508810005081901290515002501A5
:10023000950575019102950175039101C000112486
:100240001FBECFEFDAE0DEBFCDBF11E0A0E0B1E02E
:10025000E4E3FEE302C005900D92AC38B107D9F794
:1002600022E0ACE8B1E001C01D92AD38B207E1F781
:100270000E9446100C94C71E0C940000811111C0FE
:10028000653078F4443068F484E0689FF00111240C
:10029000E40FF11DEE0FFF1FE455FF4F8591949180
:1002A000089581E090E008950E943E01089581E064
:1002B00008950E945701089581E008950E94570112
:1002C00008950E945E01089508950E9464010895B2
:1002D000A6E0B0E0EEE6F1E00C94231E49835A83D9
:1002E0009E833091930189819A8131111AC03E8198
:1002F000332399F0222389F00E940B07182F682FCF
:1003000089819A810E94E80669817A81812F0E9401
:10031000FF0D2696E3E00C943F1E0E94F906182F6D
:10032000F3CF0E940B0769817A81F1CFFC01262F60
:100330004081518162817381848195810E9468012D
:100340000895CF93DF93D82FC92F61E00E949601C3
:100350006D2F7C2F0E945901DF91CF910895CF938B
:10036000DF93D82FC92F60E00E9496016D2F7C2F5C
:100370000E946501DF91CF91089581E008950E9468
:10038000BD010895CF93C82F0E94BA058C2F0E94FB
:10039000BF012FEF84E39CE0215080409040E1F7C3
:1003A00000C00000CF91089581E00E94C2010E9428
:1003B0005517089580E00E94C2010E9466170895B3
:1003C0000F931F93CF93DF938C0161E00E949601FE
:1003D000EC01B8010E9461018823B1F1B801CE019E
:1003E0000E946C14882381F1B801CE010E948B1009
:1003F000882351F1B801CE010E946010882321F1B9
:10040000F8018581882381F0CA35FCE7DF0739F1DF
:1004100078F4C130ECE7DE07F9F0C330FCE7DF0722
:10042000C9F0C115DC4771F0C8010E945C010DC024
:10043000CB35ECE7DE07B1F0CC35DC47A9F70E94FD
:100440003F0BF2CF0E94D40180E0DF91CF911F914A
:100450000F9108950E94510B0E94DA01F5CF0E947E
:10046000490BE2CF0E944D0BDFCF0E9476160E940F
:100470005C0208950E9460020E947B160895089510
:1004800081E008950895CF93DF93D82F0E94400212
:10049000C82F882319F08D2F0E9442028C2FDF91E4
:1004A000CF9108950895CF93C82F0E943F028C2FBB
:1004B0000E944302CF91089580E00E945302089564
:1004C0000E94B2140E9453020895CF930E94B21466
:1004D000C82F80918E018C1779F0C0938E010E94F5
:1004E000051760938F017093900180939101909311
:1004F00092018C2F0E945302CF910895ADE0B0E09D
:10050000E4E8F2E00C94241E488759876A877B87C9
:100510008C879D8791110E944A0A1F8286E0FE0106
:100520003896DE01119601900D928A95E1F78D8142
:1005300081110DC029813A814B815C816D817E8161
:100540008F810E9490092D96E2E00C94401ECE010E
:1005500001960E94A1018111EDCFF5CFFC018481AC
:10056000813021F4808191810E943D0708956623A6
:1005700029F00E94F9110E94CF1208950E9457128B
:10058000FACFCF93C82F882399F08CEF8C0F813A44
:1005900088F48C2F0E945515882329F08C2F0E94F7
:1005A000FA150E94E20A8C2F0E94E3150E94E20ACB
:1005B000CF91089580E28C0F883048F4C77081E0B5
:1005C00001C0880FCA95EAF70E942B0AEFCF8BE58E
:1005D0008C0F833038F42C2F2452330BC9010E9426
:1005E000E814E6CFE8E5EC0FEB3150F4F0E0EE0F65
:1005F000FF1FE95EFE4F808191810E940E15D8CFCA
:1006000083E38C0F8331A0F661E08C2F0E94B70248
:10061000CFCF882381F19CEF980F913A28F40E9464
:10062000FA150E94E20A089590E2980F983050F46B
:10063000877091E001C0990F8A95EAF7892F0E948F
:10064000310AEFCF9BE5980F933028F480E090E0DB
:100650000E94E814089598E5980F9B3128F480E0F3
:1006600090E00E940E15089593E3980F933118F4CB
:1006700060E00E94B70208951F93CF93DF93182F75
:10068000EB010E94C102209739F4812F0E940903D7
:10069000DF91CF911F9108958FE99FE00197F1F7C6
:1006A00000C000002197EFCF60E070E0893311F4C3
:1006B00060E570E00E943C030895882321F00E94C9
:1006C0002B0A0E94E20A0895882321F00E94310A31
:1006D0000E94E20A0895A0E0B0E0E1E7F3E00C94A4
:1006E0001E1E6C01D62FC72FFC01158106810295B5
:1006F0000F700E94200AE82E8823F9F0E12E1123C2
:10070000E1F08C2F807F803461F080E28D0F8830A3
:10071000F0F08C2F807E803221F4D230C0F00023A4
:10072000B1F08091710282FF12C082E00E94120B30
:100730000E94200A91E0E82EE926EC2FE295EF7066
:10074000C03CB0F5F0E0E753F14E0C940E1EE12CE6
:10075000F4CF0C2F0F70C03110F00295007F1123E1
:1007600099F0002359F080E28D0F883010F0D111FC
:1007700007C0802F0E942B0A0E94E20A8D2F51C0D1
:10078000802F0E943C0AF8CF8D2F0E94090300237E
:1007900079F080E28D0F883010F0D11104C0802FE5
:1007A0000E94310A03C0802F0E94420A0E94E20A7E
:1007B000EE2089F00E941C0A80FD0DC0F601158212
:1007C0000E94160A0E944506C6010E9481050E94E9
:1007D000160A0E945506CDB7DEB7E8E00C943A1E23
:1007E000FC2FFF70FF2EC07FC03219F0F29480EF13
:1007F000F822DD2341F0D130D1F1112309F444C0B6
:100800000023F1F0BBCF8091710282FD15C011234E
:1008100059F0FF2029F08F2D0E942B0A0E94E20A36
:1008200080E00E94C102C4CF80E00E940903FF2043
:1008300009F4BECF8F2DB4CF112369F0011104C08C
:100840008F2D0E945D03B4CF013009F0B1CF8F2D01
:100850000E94620AADCF0111ABCF8F2D0E946403BD
:100860008F2D0E946E0A8F2D0E94510AA1CF112355
:1008700021F0063008F09CCFE3CF053008F098CF88
:100880008F2D0E94640394CF0023D1F3D93349F410
:100890002FEF87EE93E0215080409040E1F700C0B9
:1008A00000008D2F0E94090383CF8C2F869586959B
:1008B0008370882369F0813009F07ACF8D2F9C2FC7
:1008C0009370111102C080E090E00E940E1570CF6D
:1008D0008D2F9C2F9370111102C080E090E00E9438
:1008E000E81466CF612F8D2F0E94B70261CF8C2F45
:1008F0008370811139C0111129C04D2F4295469541
:100900004770440F440F2D2F2F7030E0042E02C08B
:10091000220F331F0A94E2F780E090E0D4FF09C071
:100920008FE090E002C0880F991F4A95E2F780950A
:100930009095C695C695C370822B932BC23071F0EB
:10094000C33079F0C13039F00E9415060E94B2140C
:100950000E9453022DCF0E940C06F8CF0E941E0663
:10096000F5CF0E940906F2CF112361F1C0FFEECF4F
:100970004D2F429546954770440F440F2D2F2F70F1
:1009800030E0042E02C0220F331F0A94E2F780E009
:1009900090E0D4FF09C08FE090E002C0880F991F5B
:1009A0004A95E2F780959095C695C695C370822BBF
:1009B000932BC23069F0C33071F0C13031F00E9426
:1009C0008006C4CF823010F2D3CF0E947706BECF0C
:1009D0000E948906BBCF0E942D06B8CFCF7011238D
:1009E00039F08C2F0E9445068D2F0E945D03AECFFB
:1009F0008D2F0E9464038C2F0E945506A7CFD23FF3
:100A000031F170F4D03FB9F0D13FB1F1112309F4C5
:100A10004EC0002309F448C08D2F0E94C10296CF1A
:100A2000D33FE1F0D43F21F11111F3CF01114DC0BB
:100A30008C2F8F71E1CF112341F0053008F086CF64
:100A40008C2F8F710E94670681CF0530F7CF8C2FD6
:100A50008F711111D1CF0E94450678CF112329F053
:100A60008C2F8F710E94390671CF0E9434066ECF91
:100A70008091710282FD06C08C2F8F71112309F4C1
:100A8000BBCFE9CF112331F063E08C2F8F710E942F
:100A9000F40A5CCF81E00E94120B023008F456CFBA
:100AA00082E00E94120B52CF8C2F8F71D4CF002383
:100AB00009F4BECFD93349F4EFEFF7EE23E0E1506C
:100AC000F0402040E1F700C000008D2F0E94090394
:100AD0003DCF0F931F93CF93DF93EC016881798112
:100AE0008D810E944A078C010E9492060E9408068E
:100AF000B801CE010E946B03DF91CF911F910F913E
:100B00000895CF93DF93EC018C81882399F0CE0177
:100B10000E94E001811111C00E94200A882351F037
:100B20008D81882339F08091710282FF03C082E0B9
:100B30000E94120BDF91CF910895CE010E946905AA
:100B4000CE010E94AF01F6CF80E090E00E94E81451
:100B500080E090E00E940E150E944A0A0E94E20A7C
:100B60000E94EC120E94CF1208950E9411160E945A
:100B7000A40508950E94390A0E94B5050895282FFA
:100B800092959F70963091F060F4925F9F709230D2
:100B900030F481E0203F79F030F4283E30F080E0FE
:100BA00008959A5FF3CF243FD1F7089581E0283E5E
:100BB000E0F3213FF9CF0895FC018481882339F0C7
:100BC000808191810E943D070E94BF05089580E0C9
:100BD0000895A6E0B0E0EFEEF5E00C94241E269612
:100BE000E2E00C94401EA7E0B0E0E9EFF5E00C94E1
:100BF000241E2796E2E00C94401E08950E94FD05F5
:100C000008950E94FE059093A3018093A201089588
:100C100008950E94010608952091A2013091A30138
:100C2000822B932B0E94010608952091A2013091FE
:100C3000A301822393230E94010608952091A2011B
:100C40003091A301822793270E94010608950E94F4
:100C5000FD0508950E94270608950E942A06909394
:100C6000A1018093A001089580E090E00E942D06EC
:100C7000089521E030E0A90102C0440F551F8A9574
:100C8000E2F7CA010E942D06089521E030E002C07B
:100C9000220F331F8A95E2F78091A0019091A10164
:100CA000822B932B0E942D06089521E030E002C094
:100CB000220F331F8A95E2F7209530958091A0018D
:100CC0009091A101822393230E942D06089521E093
:100CD00030E002C0220F331F8A95E2F78091A00115
:100CE0009091A101822793270E942D0608952091BB
:100CF000A0013091A101822B932B0E942D06089513
:100D00002091A0013091A101822393230E942D06FE
:100D100008952091A0013091A101822793270E947C
:100D20002D06089508959B01677091E001C0990F09
:100D30006A95EAF763E0369527956A95E1F7220F01
:100D4000331F220F331FFA01E20FF31F40E050E080
:100D5000682F70E08191DF0111979B01042E02C082
:100D6000369527950A94E2F72170219528272923A3
:100D700028272C934F5F5F4F4430510559F7089552
:100D80009C01982F977083E0369527958A95E1F717
:100D9000220F331F220F331FFB01E20FF31F40E02E
:100DA00050E080E0219130E0092E02C03695279571
:100DB0000A94E2F721703327042E01C0220F0A940F
:100DC000EAF7822B4F5F5F4F4430510559F7089582
:100DD000282F862F953060F4243050F434E0939F10
:100DE000B0011124620F711D44E951E00E94930685
:100DF0000895282F953068F4843058F434E0939F98
:100E0000C001112464E971E0820F911D0E94C006A7
:100E1000089580E00895A0E0B0E0E1E1F7E00C94EF
:100E20001D1E8C01E090A001F090A1018091A20113
:100E30009091A301E82AF92ACFE0D0E0CC24C39412
:100E4000D12CC6010C2E02C0880F991F0A94E2F71C
:100E50008E219F21892B49F4219798F7B12C8B2D56
:100E6000CDB7DEB7E9E00C94391EBC2EB8018C2F4B
:100E70000E940B0E019781F3F2CFCF93DF93D82F0F
:100E8000C92F0E940B076D2F7C2F0E940B0EDF9144
:100E9000CF9108951F93CF93DF93162FD72F909163
:100EA0009301992341F0862F972F0E943D07DF91F0
:100EB000CF911F910895882381F0862F972F0E944C
:100EC0000B07C82F682F812F9D2F0E94E806612FE6
:100ED0007D2F8C2F0E940B0EEACF862F972F0E941A
:100EE000F906C82FF4CF0F931F93CF93E091A4017D
:100EF000C7E08091A5018E1304C0CF911F910F917F
:100F000008950E2F10E0CE9FF0011124EA55FE4FF8
:100F100020813181428153816481758186810E9463
:100F2000F305F8013196E770E4CF2091DE013091AE
:100F3000DF014091E0015091E1016091E201709187
:100F4000E3018091E4010E94F30508958091E4019A
:100F5000803178F48091E301882359F0E091A40175
:100F60002091A5013091DF014091DE0157E02E1361
:100F700001C008956E2F70E05E9FF0011124DF0123
:100F8000AA55BE4F14968C911497882361F111963F
:100F90008C911197831327C08C91841324C01596CC
:100FA0008C91159781111FC012968D919C91A091E3
:100FB000E001B091E1018A1B9B0B883C910598F4FC
:100FC0008091E4018F7080618093E401E455FE4FCD
:100FD00080818F70806180838EED91E00E94810519
:100FE0000E9473070895FB013196E770C0CFE0912E
:100FF000A4019091A50127E0E91302C080E00895C3
:10100000AE2FB0E02E9FF0011124EA55FE4F318142
:10101000361306C03081381303C03581341304C041
:10102000FD013196E770E8CF81E008958F929F929D
:10103000AF92BF92DF92EF92FF920F931F93CF93E5
:10104000DF93CDB7DEB72D970FB6F894DEBF0FBE96
:10105000CDBF8C0186E0F801DE01189601900D925B
:101060008A95E1F7F801E080F580A280B380848161
:101070009EED892E91E0992E9091E20191111BC075
:10108000882309F4FCC0FF2009F43DC1C8010E9477
:10109000DC05882309F437C187E0F801D401019009
:1010A0000D928A95E1F7C4010E94AE020E94A60744
:1010B0000E949507E4C0D090E3012091E0013091B7
:1010C000E101A501421B530BDD2009F4DBC0483CC4
:1010D000510508F0A6C0882309F4D1C09091DF0122
:1010E00091808091E401803108F06BC0991228C092
:1010F0009091DE019E1124C0F1105DC08F7080615F
:101100008093E4010E9495078EED91E00E94810595
:101110008091E401F8018683F12C8F2D2D960FB676
:10112000F894DEBF0FBECDBFDF91CF911F910F911D
:10113000FF90EF90DF90BF90AF909F908F900895B9
:10114000F11039C040E0692D8E2D0E94F70740E074
:10115000692D8E2D0E94F707F82E8111DDCF88852D
:1011600099850E943D07292F22952F70903450F4C5
:101170009F70223080F0992399F0F8019681903188
:1011800078F4CBCF2A5F2F70223078F0C8010E940C
:101190008105FD2CC2CF992319F0882309F4BDCF16
:1011A000805E883008F4B9CFF1CF803F08F4B5CF26
:1011B000815F8230F7CF8091E40181608093E40108
:1011C000ABCF991207C09091DE019E1103C0FF20A2
:1011D00009F479C0C8010E94DC05882309F493C092
:1011E000FF2009F490C08091E401803288F02091C2
:1011F000DE013091DF013A832983BC82AB8290917A
:10120000E2019D831E828F83CE0101960E9481059B
:1012100087E0F801AEEDB1E001900D928A95E1F71B
:1012200045CF9091E4019031A0F4488559856A85B5
:101230007B858C859D850E94E9058EED91E00E945D
:10124000810587E0F40111928A95E9F70E949507DC
:1012500063CF8823A1F02091DF0181812813BACFC9
:101260008091DE018E11B6CFF110B4CF9683C80104
:101270000E94810587E0F40111928A95E9F7FF2425
:10128000F3944BCF483C510508F041C08823B9F393
:10129000FF20C9F19091DF01818198132AC08091CC
:1012A000DE018E1126C08091E40180FD19C08031DD
:1012B000B8F08683807F803F39F08681982F907FB9
:1012C000905F8F70892B8683C8010E94810587E01B
:1012D000F801AEEDB1E001900D928A95E1F7E8CE0C
:1012E00087E0F801AEEDB1E001900D928A95E1F74B
:1012F000C6CFC8010E94DC0581118ACF8091E4012C
:1013000081608093E401C8010E948105B8CF4885BF
:1013100059856A857B858C859D850E94E90591CFDD
:10132000AEE0B0E0E6E9F9E00C94231E28873987A7
:101330004A875B876C877D878E87CE0108960E94DF
:1013400016088823B1F06C85662341F0288539851D
:101350004A855B857D858E850E94F30517E0809127
:10136000A4019091A50189133EC02E96E3E00C9450
:101370003F1E87E0FE013896DE01119601900D9226
:101380008A95E1F72091A5014091A4018C858823DD
:1013900029F330E0C90101968770992750E084173E
:1013A000950799F097E0929FD001939FB00D11247B
:1013B000AA55BE4FFE01319601900D929A95E1F724
:1013C0008093A5010E947307C9CF0E94BA051092AD
:1013D000A5011092A40187E0EEEDF1E0DF011D927E
:1013E0008A95E9F7BBCF189FC00111248A559E4FFB
:1013F0000E941608882309F4B8CFE091A4011E9F2B
:10140000F0011124EA55FE4F208131814281538140
:101410006481758186810E94F3058091A40190E02A
:101420000196877099278093A40199CF80910D022E
:10143000869586958695089580910D02877008950A
:1014400090910D02977081E0911101C080E00895A4
:1014500080913902089590913902982B9093390226
:101460000895982F909580913902892380933902AD
:10147000089510923902089590913802982B909314
:1014800038020895982F909580913802892380938F
:101490003802089510923802089508950E944D0A66
:1014A000089590910E02292F2823222331F0809550
:1014B000892380930E020E944E0A089508950E9487
:1014C0005E0A089590910F02292F2823281729F0EA
:1014D000982B90930F020E945F0A089590910F023B
:1014E000292F2823222331F08095892380930F020E
:1014F0000E945F0A089580910F02882329F01092BC
:101500000F0280E00E945F0A0895CF93DF93C0919D
:10151000390280913802C82BD0910F02DD2331F0BF
:101520000E94341581110E947B0ACD2B8C2FDF91F4
:10153000CF910895CF93DF93C0910201D091030121
:101540000E94850A8883C0910201D091030148E07E
:1015500050E065E072E0CE010E945F1E892B59F0D9
:1015600088E0FE01A5E0B2E001900D928A95E1F7D6
:10157000CE010E94BF14DF91CF910895CF93DF93E6
:10158000C0910001D09101010E94850A8983C09118
:101590000001D091010140E250E065EE71E0CE0122
:1015A0000E945F1E892B59F080E2FE01A5EEB1E09A
:1015B00001900D928A95E1F7CE010E94CA14DF9145
:1015C000CF91089580911601882339F0809170029F
:1015D00087FF03C00E94BE0A08950E949A0A0895D8
:1015E00008950E94F00A08959091710292FF11C02F
:1015F00098E0899F90011124622B60930D020E9454
:10160000450680910D028695869586950E94F10A81
:1016100008950E944506089510920D0280E00E94F0
:10162000F10A089590910D028095892380930D020F
:10163000282F277021110DC0891759F09091710240
:1016400092FF07C08695869586950E9455060E9452
:101650000C0B08959091710292FB222720F9281714
:1016600069F080FB92F990937102809170029091E1
:1016700071020E94720B82E00E94120B0895809109
:10168000710282FB882780F991E089270E942A0B4A
:10169000089581E00E942A0B089580E00E942A0BA1
:1016A00008956FEF7FEF80E090E00E94B11E0895F3
:1016B00080E090E00E947D1E9C0181E0253E3E4F2F
:1016C00009F080E0089582E090E00E94751E089580
:1016D00083E090E00E94751E089584E090E00E94EF
:1016E0007D1E0895BC0184E090E00E94B11E089523
:1016F000AB01BC018FE090E00E94A51E0895AB01F4
:10170000BC0183E190E00E94A51E089560E070E0B6
:10171000CB010E947F0B089560E070E0CB010E9436
:10172000780B0E94860B0895A8E0B0E0EAE9FBE0A0
:101730000C94241E65EE7EEF80E090E00E94B11EC6
:1017400060E082E090E00E94931E81E090E0909340
:10175000A3018093A20161E083E090E00E94931EC8
:1017600060E074E184E090E00E94B11E60E086E0F9
:1017700090E00E94931E60E087E090E00E94931E3C
:1017800040E050E0BA0188E090E00E94A51E60E0D1
:1017900083E290E00E94931E60E08CE090E00E9463
:1017A000931E60E08DE090E00E94931E19821A82E1
:1017B0001B821C821D821E821F82188648E050E018
:1017C00067E170E0CE0101960E94831E40E050E088
:1017D000BA018FE190E00E94A51E0E948C0B289612
:1017E000E2E00C94401E0E94940B0895682F8EE056
:1017F00090E00E94931E0895A6E0B0E0E2E0FCE0D5
:101800000C94221E0E94F9168C0180913A0290914C
:101810003B028017910779F019821A820E94F9160B
:10182000BC0149815A8180E090E00E947E021093C1
:101830003B0200933A022696E4E00C943E1E0E947E
:101840000517609345027093460280934702909378
:101850004802609341027093420280934302909346
:1018600044020895089508950E94320C0895089541
:101870000E94370C089583E09FE00E945B100E9455
:10188000330C0E94340C089581E008950E94440CAA
:1018900008950E94440C0895089508950E944C0CE8
:1018A0000E944D0C08950E94580B811102C00E94A5
:1018B000F30B0E94630B809349020E946D0B90937F
:1018C0007102809370020E94680B90E00E940906EA
:1018D0008091A0019091A1010E942A0608950E9482
:1018E000F0160E94AF0F0E94530C0E9452020E94F9
:1018F000380C0895A6E0B0E0E0E8FCE00C941B1E74
:101900000E94460C81110AC00E94FC0B0E940D131C
:101910000E9465022696EBE00C94371E0E94C50FCC
:101920008CE3A82E82E0B82E750110E0F70101913A
:101930007F01812F0E940D0F1F5F153009F443C0F6
:101940000817A1F38091490281FD0E94130F0E94A4
:10195000490CC82E00E099249394802F0E940D0F0B
:10196000182FF50191915F01891739F1D82ED926E9
:10197000F12CEE24E3948D2D8E218823B1F0CC2020
:10198000A1F0F9820A830E94F9169C838B839D82C1
:1019900091E0812F8E21811101C090E049815A810F
:1019A0006B817C818D810E947E02F394EE0CF4E0C9
:1019B000FF12E1CFF501319710830F5F053069F613
:1019C0000E941F0CA3CF0813BDCF9ECF1F93CF93B0
:1019D000DF930E94100EEC01811522E5920708F0BA
:1019E00053C0811540E5940708F0DDC0803E9105A5
:1019F000F8F48D3C910508F0AEC0883A910580F46A
:101A0000853A910508F099C08130910521F004973D
:101A1000813A910550F4CE01DF91CF911F91089545
:101A2000885A91094B9708F48BC0C0E0D0E0F3CFFF
:101A3000811550E49507F8F4C11580E2D80708F045
:101A4000CBC0C83ED10538F3CE019A9581159F4190
:101A500060F78D2F0E94B40E182FCE0199270E9497
:101A6000100E212F30E0322F2227E901CC27DF7121
:101A7000C82BD92BD0CF99270E94100ECC27DF700E
:101A8000C82BD92BD06AC7CF803842E59407C8F558
:101A9000803652E5950708F067C0C03482E5D80764
:101AA000B0F08C2F86958695877020E2829FC001CA
:101AB0001124C37021E030E0A90102C0440F551F7A
:101AC000CA95E2F7EA01C82BD92BDC68A4CFC03253
:101AD00052E5D50708F041C08C2F8695869520E207
:101AE000829FC0011124C37021E030E0A90102C02F
:101AF000440F551FCA95E2F7EA01C82BD92BDD68C0
:101B00008ACF803C52E5950760F48F71C03AD24588
:101B100008F03FC090E0982F8827EC01C46FD06A8E
:101B20007ACF805C9245809708F07FCFDC2FCC275E
:101B3000CC27DF71C06FD06A6ECFA497D0646BCF13
:101B4000C85AD0E0CC0FDD1FC35BDE4F0990D881AF
:101B5000C02DD46460CFD0655ECFCF71D0E0DC2FD4
:101B6000CC27C16FD06A57CF86958695877020E2C3
:101B7000829FC0011124C37021E030E0A90102C09E
:101B8000440F551FCA95E2F7EA01C82BD92BDA6832
:101B900042CF0E94B40EC82FD0E0DC2FCC27CC2738
:101BA000DF71D06238CF8F710E94B40E65E0D69598
:101BB000C7956A95E1F7CF70D0E0DC2FCC27282FAE
:101BC00030E084FF05C054E0220F331F5A95E1F73F
:101BD000C22BD32BD0691FCF8D2F8F710E94B40ED3
:101BE000182FCE0199270E94100E212F30E0322F9E
:101BF000222722273F71282B392BE901D2CF462FEC
:101C0000672F753028F4443018F40E945401089569
:101C100080E090E008950E94FF0D0E94E60C089578
:101C2000803E9105D1F1C8F48133910509F47FC05C
:101C300048F48932910509F46FC08A32910509F49C
:101C40007DC0089589339105E1F082389105C9F08E
:101C50008533910509F45BC00895843E9105D1F167
:101C600048F4823E910531F1833E910541F181EEC8
:101C700090E00895863E9105C1F1873E9105E1F11E
:101C80000895209170022370211165C02091710286
:101C900023FF14C089E290E008952091700220FD96
:101CA00043C03091710230FF09C024FF4EC080E074
:101CB00090E008952091700222FDF7CF08952091C1
:101CC000700222FD45C03091710230FD44C024FFF6
:101CD000F5CFEDCF2091710221FFF0CF80917002FE
:101CE00084FDE5CF87EE90E008952091700223FFF8
:101CF000E5CF24FDDCCFF6CF2091700223FD2EC06E
:101D00003091710231FFE3CF84EE90E0089520918D
:101D1000700225FFD3CFBECF2091700225FD21C0D8
:101D20002091710223FFCACF89E390E008952091AA
:101D3000700226FFC3CF8AE290E0089520917002DE
:101D400026FFBCCF81E390E0089583EE90E00895F4
:101D500082EE90E0089580EE90E0089586EE90E0A7
:101D6000089585E390E0AACF9091700292FF10C091
:101D700041E0282F2471243009F040E031E0282F81
:101D80002871283009F030E0431711F02CE0822749
:101D900093FF10C041E0282F2471243109F040E066
:101DA00031E0282F2871283109F030E0431711F075
:101DB0002CE082273091710230FF10C051E0282FB3
:101DC0002171213009F050E041E0282F287128309E
:101DD00009F040E0541711F029E0822731FF10C0CC
:101DE00041E0282F2171213109F040E031E0282F16
:101DF0002871283109F030E0431711F029E08227DB
:101E000094FD877E089580E0089508950E94050F4F
:101E1000089508950E94090F0895E82FF0E0E95809
:101E2000FD4F80810895089580EA8A95F1F708951D
:101E300000C008950E94140F0895F894E82FE295C9
:101E4000EF70F0E041A18F7021E030E0B90102C0F5
:101E5000660F771F8A95E2F7CB01962F9095942312
:101E600091A392A1892B82A378940895CF93DF93B5
:101E7000C7E8D1E089918F3F11F00E941D0F81E0EA
:101E8000CC38D807B9F781E90E941D0F80E90E947C
:101E90001D0F84E90E941D0F86E60E941D0FDF9131
:101EA000CF910895A0E0B0E0E8E5FFE00C941E1E9D
:101EB000EC01D62E062F10E0C80189579E4F7C01F9
:101EC000FC0180818F3F09F445C0F894E82FE2952A
:101ED000EF70F0E091A18F7021E030E001C0220F9F
:101EE0008A95EAF7892F822B81A382A12095282346
:101EF00022A378940E94180FE3E8F1E091E0C12C4E
:101F000081918F3F81F0A82FA295AF70A05EB0E0C5
:101F10002C9130E08F7002C0359527958A95E2F7B5
:101F20002170892F211180E0C82A990F81E0E738BC
:101F3000F80731F7F70180818F3F11F00E941D0FE4
:101F400061E0C11001C060E08D2D0E941A0FC00F2A
:101F5000D11FC882CDB7DEB7E8E00C943A1E0E94CC
:101F6000360F85E0E7E7F2E0DF01982F1D929A95A2
:101F7000E9F7E2E7F2E0DF011D928A95E9F785E0F3
:101F80000E9403100E94060F0895A5E0B0E0EBEC5C
:101F9000FFE00C94211E1A821982FE01339683E021
:101FA000DF011D928A95E9F7F12C8E010F5F1F4F1B
:101FB0006F2DC8010E94520FF394B5E0FB12F8CFC9
:101FC00045E050E0B80182E792E00E945F1E21E008
:101FD000892B81F420E045E067E772E082E792E038
:101FE0000E940410182F0E940A0F812F2596E5E009
:101FF0000C943D1E85E0F801A2E7B2E001900D923D
:102000008A95E1F7E8CF0895A0E0B0E0EAE0F0E1DA
:102010000C941E1ED82EE92EF62ED72F042FC22F79
:10202000222379F081E080934C020E94F91690936C
:102030004B0280934A0280E0CDB7DEB7E8E00C9413
:102040003A1EC0904C02CC20B1F380914A0290918C
:102050004B020E942217059770F310E0A8016D2D26
:102060007E2D8F2D9D2F0E945F1E892B41F0A80190
:102070006D2D7E2D8F2D9D2F0E946C1ECC2D1092CC
:102080004C028C2FD9CF0E947A0C08950E94921690
:102090000E94BA180E943B0C0E94D4180E946F0C38
:1020A0000E94E1180E94E6180E9443100E94001945
:1020B0000E944E0CF7CF90938D0180938C01089570
:1020C000CF93DF93EB0186319C4719F50E94280AD4
:1020D0009D819923A1F08A7A91E0811101C090E05D
:1020E00090934D02882349F085E30E94E3150E94F6
:1020F000E20A80E0DF91CF91089589E2F6CF8091E6
:102100004D02882321F085E30E94FA15F0CF89E281
:10211000FBCF81E0EFCFCF93DF93EC01FB01858113
:10212000882309F4D2C09E0130572332310508F0CC
:10213000B2C00E946D0B9093710280937002FE01F9
:10214000E150F047E232F10520F4EB52F14E0C94ED
:102150000E1E8091700281608093700293C0809106
:1021600071028860809371028DC0809170028260DC
:10217000F3CF809170028460EFCF8091700288600D
:10218000EBCF809171028160EDCF8091710282600E
:10219000E9CF809170028061DFCF80917002806210
:1021A000DBCF809170028064D7CF0E94BA05809106
:1021B00070028068D1CF809170028C60CDCF809109
:1021C00071028360CFCF809170028E7FC5CF8091E6
:1021D0007102877FC7CF809170028D7FBDCF8091C4
:1021E00070028B7FB9CF80917002877FB5CF8091CD
:1021F00071028E7FB7CF809171028D7FB3CF8091B6
:1022000070028F7EA9CF809170028F7DA5CF8091C3
:1022100070028F7BA1CF0E94BA05809170028F77E8
:102220009BCF80917002837F97CF809171028C7FCA
:1022300099CF8091700282FB992790F921E0922733
:1022400090FB82F990FB83F987CF80917102982FE0
:10225000909591708E7F892B90FB81F983CF90911F
:102260007002892F8F7B96FF806476CF0E94BA051B
:1022700090917002892F97FB87F980586DCF81E08C
:102280000E94F60B80917002909171020E94720B75
:102290000E94BA0580E0DF91CF91089580E0F0CFF1
:1022A00090917002892F8F7E94FF806155CF90911D
:1022B0007002892F8E7F90FF81604ECF90917102C6
:1022C000892F877F93FF88604DCF81E0E4CF282F4F
:1022D00035EB2303C001112497FF04C080589109F6
:1022E000892F089580589F4FFBCF8091540280FF23
:1022F0000DC06091090170E0660F771F60387105AD
:10230000C0F561157105B9F1862F089581FF07C0E9
:102310006091090184E0689FB0011124EFCF82FF32
:1023200004C06091090188E0F6CF809153028823B0
:10233000E9F0909108016091090170E0891730F08F
:1023400093E0660F771F9A95E1F7D8CF869F9001AB
:10235000879F300D112483E0220F331F8A95E1F708
:10236000692F70E0C9010E94FA1DC8CF68E070E0D3
:10237000CBCF8FE7089581E008958091540280FFCC
:102380000CC06091050170E075956795759567952E
:102390006115710561F1862F089581FF06C0609176
:1023A000050170E075956795F3CF6091050170E0C8
:1023B00082FD15C0209152022223B1F090910401B8
:1023C0006091050170E0291750F4269FA001279F16
:1023D000500D1124692F70E0CA010E94FA1D603867
:1023E0007105B0F28FE7089561E070E0D4CF81E02D
:1023F00008959091570220915802922B20915A02F1
:10240000922B20915902922B992331F098E09093CE
:10241000530291E0909352028D3C31F40E94751169
:102420008195809358020895E2E3E80FE231B0F518
:10243000F0E0E950F14E0C940E1E0E947511F1CFA0
:102440000E94751181958093570208950E9475111D
:10245000FACF0E94BD118093590208950E94BD11C8
:102460008195F9CF0E94BD11819580935A020895FC
:102470000E94BD11FACF815D990B21E030E001C0CF
:10248000220F8A95EAF780915602822B809356029A
:102490000895809154028160809354020895809140
:1024A00054028260F9CF809154028460F5CF40914C
:1024B00057028D3C59F48091580287FF0DC010924D
:1024C0005802442359F41092530208C08E3C81F400
:1024D0008091580218169CF3442381F08091590290
:1024E00090915A02892B811159C01092520208957D
:1024F0008F3C41F447FFF0CF109257028091580271
:102500008823E0CF803D19F41416B4F3E5CF909101
:102510005902893D29F41916FCF610925902DCCFB4
:102520008A3D19F497FFD8CFF8CF90915A028B3D8E
:1025300029F497FFD1CF10925A02CECF8C3D19F4D7
:102540001916CCF3C9CF9FE2980F983090F4815DB3
:10255000990B21E030E0B90102C0660F771F8A9520
:10256000E2F7CB0180959091560289238093560221
:10257000B3CF8D3D31F4809154028E7F809354020D
:10258000ABCF8E3D21F4809154028D7FF7CF8F3DEC
:1025900009F0A2CF809154028B7FF0CF08950E9462
:1025A000F9162091570230915802232B222321F053
:1025B00080935002909351022091590230915A0217
:1025C000232B222321F080934E0290934F0285E526
:1025D00092E00E94D914089586E0E5E5F2E0DF017B
:1025E0001D928A95E9F710925302109252021092AE
:1025F00054020895FC01828181110DC083818111F3
:102600000AC08481811107C081E09581911101C0C8
:1026100080E08170089581E0FCCFA6E0B0E0E3E1C6
:10262000F3E10C94211E86E0E5E5F2E09E012F5FC8
:102630003F4FD90101900D928A95E1F71092570210
:10264000109258021092590210925A028B819C816A
:10265000892B8901882391F0809150029091510239
:102660000E9422179C01809153028823C9F1409156
:102670000A0150E04217530708F43FC08D819E8144
:10268000892B882399F080914E0290914F020E94ED
:1026900022179C0180915202882309F467C040915F
:1026A000060150E04217530708F46EC0B80185E5F3
:1026B00092E00E942B16811105C085E592E00E94F0
:1026C000FA1281110E94CF1286E0F801A5E5B2E06E
:1026D00001900D928A95E1F72696E5E00C943D1E57
:1026E00040910B019AE0499FA00111244217530722
:1026F00028F68F5F8093530202C08F3FD1F7FB8093
:10270000FF2059F00E94751191E01F140CF09FEF0B
:10271000899F802D112480935702FC80FF2059F05F
:102720000E94751191E01F140CF09FEF899F802D7E
:1027300011248093580280915702882309F49ECF78
:10274000F0905802FF2009F499CF0E94671181117F
:1027500001C081E0809357028F2D0E94671188236A
:1027600019F0809358028ACF81E0FBCF4091070196
:102770009AE0499FA00111244217530708F096CF11
:102780008F5F8093520202C08F3FD1F7FD80FF2000
:1027900059F00E94BD1191E01F140CF09FEF899F2A
:1027A000802D112480935902FE80FF2059F00E9451
:1027B000BD1191E01F140CF09FEF899F802D112413
:1027C00080935A0280915902882309F46FCFF090C8
:1027D0005A02FF2009F46ACF0E946711811101C0DB
:1027E00081E0809359028F2D0E946711882319F090
:1027F00080935A025BCF81E0FBCF0F931F93CF935F
:10280000DF93C42FD22FFC0185818823C9F0409328
:102810005D020E94F91690935C0280935B0280E255
:102820008C0F883040F4C77081E001C0880FCA95D2
:10283000EAF70E945D03DF91CF911F910F910895F8
:1028400010915D0214133CC080915B0290915C0278
:102850000E942217883C910598F5C0E2CD0F1D1704
:1028600041F180E2810F883040F4177081E001C0AF
:10287000880F1A95EAF70E946403C83020F0802F71
:102880000E945403D8CF91E08D2F877001C0990F1B
:102890008A95EAF7892F0E945D03802F0E945403D6
:1028A000D77081E001C0880FDA95EAF70E946403CF
:1028B000C2CF802F0E945403C83008F0BCCFF0CFA5
:1028C00080E28C0F883008F0B6CFC77081E001C07D
:1028D000880FCA95EAF7EACF0F93FC01CB01E851C4
:1028E000FC47E730F10590F5E75FF04E0C940E1EC3
:1028F00006E221EE41EE6AE17CE70E94FD1380E0F2
:102900000F91089507E225EE45EE6BE17CE7F5CFE8
:1029100006E221EE40EE68E17CE7EFCF07E225EE2C
:1029200044EE69E17CE7E9CF06E221EE42EE6CE19C
:102930007CE7E3CF07E225EE46EE6DE17CE7DDCFF5
:1029400008E221E045EE6EE17CE7D7CFFB0185810F
:10295000811110925D0281E0D3CF90936302809346
:1029600062020895E0916202F0916302309729F0CB
:102970000190F081E02D0995089580E00895E0919F
:102980006202F0916302309721F00280F381E02D22
:1029900009950895DC01E0916202F091630230979D
:1029A00039F086E08C930480F581E02DCD01099506
:1029B0000895DC01E0916202F0916302309739F0F2
:1029C00082E08C930680F781E02DCD010995089572
:1029D000A3E0B0E0EEEEF4E10C94241E9C018091A3
:1029E00060029091610282179307A1F03093610217
:1029F00020936002E0916202F0916302309751F0FF
:102A000083E089833B832A830084F185E02DCE0116
:102A1000019609952396E2E00C94401EA3E0B0E0F5
:102A2000E4E1F5E10C94241E9C0180915E029091FA
:102A30005F0282179307A1F030935F0220935E023A
:102A4000E0916202F0916302309751F084E0898353
:102A50003B832A830084F185E02DCE010196099500
:102A60002396E2E00C94401E209102013091030174
:102A70002E5F3F4F809116018823A9F0809170024C
:102A800087FF11C020910001309101012E5F3F4F5F
:102A90009DE180E0F90140812F5F3F4F41118F5F41
:102AA0009150C0F7089595E0F4CF882321F19091DB
:102AB0001601992311F19091700297FF1EC0982F73
:102AC000969596959695803FB0F4E0910001F0912F
:102AD0000101E90FF11D228130E0877041E050E0F3
:102AE000BA0102C0660F771F8A95E2F726233723C3
:102AF00081E0232B91F480E0089520910201309130
:102B00000301F9013296285F3F4F9191981721F008
:102B1000E217F307D1F7EFCF81E008959C01FC01A4
:102B200032968FEF90E04191461751F08F3F19F4A4
:102B3000411101C0892F9F5F9630A9F78F3F09F49B
:102B40000895280F311D87FD3A95F9016283089594
:102B50009C01FC013296285F3F4F8191861303C090
:102B6000DF0111971C92E217F307B9F70895FC01F2
:102B7000862F869586958695603F60F4E80FF11D57
:102B8000677021E030E001C0220F6A95EAF7828188
:102B9000822B82830895FC01862F869586958695E3
:102BA000603F80F4E80FF11D677081E090E09C01C8
:102BB00002C0220F331F6A95E2F7B9016095828146
:102BC000682362830895682F80911601882359F045
:102BD0008091700287FF07C08091000190910101F0
:102BE0000E94B715089580910201909103010E94FF
:102BF0008E150895682F80911601882359F08091D1
:102C0000700287FF07C080910001909101010E942E
:102C1000CB15089580910201909103010E94A8159F
:102C2000089580911601882379F08091700287FFC2
:102C30000BC0E0910001F091010132968EE1DF01BD
:102C40001D928A95E9F70895E0910201F091030140
:102C5000329686E0F4CFDC01FB0111969C9111972E
:102C60008181981322C012968C911297882319F0B3
:102C7000928189131AC013968C911397882319F0A7
:102C80009381891312C015968C911597882319F09A
:102C9000958189130AC014969C91992321F081E0B3
:102CA0002481291303C080E001C081E08170089570
:102CB00008950E94581608958F5F809364020E94C1
:102CC0005916089583E0809364020E94591608956E
:102CD0000E945C16089581E0809364020E94591658
:102CE00008950E946B160895089508950E94751620
:102CF0000895089508950E9474160895CF930E9430
:102D000079160E94C50F0E947A16C0E08C2F0E948F
:102D10000D0F811105C0CF5FC530C1F7CF91089568
:102D200081E0FCCF85B7806885BF85B7806885BFA7
:102D300008951F921FB61F9211248F939F93AF93F4
:102D4000BF9380916502811113C080917C029091A4
:102D50007D02A0917E02B0917F024196A11DB11D1E
:102D600080937C0290937D02A0937E02B0937F02B9
:102D7000BF91AF919F918F911F901FBE1F9018958B
:102D800080918402843031F10E94350210926502F4
:102D900088E190E020E40FB6F894A8958093600055
:102DA0000FBE2093600083B7817F846083BF83B7A9
:102DB000816083BF7894889583B78E7F83BF0FB679
:102DC000F894A895809160008861809360001092CB
:102DD00060000FBE08950E94BA050E943A0208954D
:102DE00082E084BD93E095BD9AEF97BD80936E001D
:102DF00008952FB7F89480917C0290917D02A09164
:102E00007E02B0917F022FBF0895A4E0B0E0EBE016
:102E1000F7E10C94241E8FB7F89420917C02309136
:102E20007D0240917E0250917F0229833A834B8339
:102E30005C838FBF69817A818B819C812496E2E0DB
:102E40000C94401E9C014FB7F89480917C029091A5
:102E50007D02A0917E02B0917F024FBF821B930B37
:102E6000089578941F921FB61F9211248F939F93F9
:102E7000AF93BF9380917C0290917D02A0917E02DE
:102E8000B0917F020196A11DB11D80937C029093A9
:102E90007D02A0937E02B0937F02BF91AF919F917C
:102EA0008F911F901FBE1F90189587E797E790930B
:102EB00001088093000888E19AE00FB6F894A8957D
:102EC000809360000FBE90936000FFCF88E19AE08E
:102ED0000FB6F894A895809360000FBE90936000A1
:102EE000FFCF80916E020895282FCB01BA01309157
:102EF00084023430E1F42F702093E9002FEF3091F9
:102F0000E80035FD07C035ED3A95F1F70000215096
:102F10002111F5CF2091E80025FF09C040E050E0E5
:102F20000E9478198091E8008E778093E8000895D8
:102F3000BC0143E050E082E00E9474170895BC0198
:102F400046E050E082E00E9474170895BC0140E220
:102F500050E082E00E9474170895CF93DF93D82F3A
:102F6000C92F48E050E0682F792F81E00E94741744
:102F700088E0ED2FFC2FA6E6B2E001900D928A9535
:102F8000E1F7DF91CF91089580918302811109C00B
:102F90000E94001B0E945D1B8091E2008460809370
:102FA000E20008951092830208950E946B1608951E
:102FB0006091800281E0611101C080E00E94621690
:102FC00008959091840281E0943009F080E060914E
:102FD00080020E946816089542E061EC81E00E9440
:102FE0007C1A42E261EC82E00E947C1A9091840299
:102FF00081E0943009F080E0609180020E945C16CC
:10300000089580918602893089F148F4823009F46C
:10301000A0C0833009F45AC0813041F008958A304D
:1030200009F487C08B3009F46CC008958091850243
:10303000813A09F04AC08091E800877F8093E800D8
:103040008091890290918A02892B61F060E080E092
:1030500090E070E00E94C7198091E8008B77809320
:10306000E800089568E086E692E0F3CF809185025B
:10307000813259F58091890290918A02029728F550
:103080008091E800877F8093E8008091E80082FFCC
:1030900018C09091F3008091F200029731F4809172
:1030A000F100813011F0863021F48091F10080939D
:1030B0006E028091E8008B778093E8000E94B01A3E
:1030C00004C0809184028111E0CF0895809185022F
:1030D000813AD9F78091890290918A02892BA9F7C8
:1030E0008091E800877F8093E8008091E80080FF6E
:1030F000FCCF809116018093F1008091E8008E77DB
:10310000DBCF80918502813201F780918902909115
:103110008A02892BD1F68091E800877F8093E800AE
:103120000E94B01A80918702809316010E94BA050E
:10313000089580918502813241F68091E800877F71
:103140008093E8000E94B01A8091880280936F02F9
:10315000089580918502813A09F0B7CF8091E80007
:10316000877F8093E8008091E80080FFFCCF80910A
:103170006F02C1CF84B7877F84BF0FB6F894A8953C
:1031800080916000886180936000109260000FBEA3
:1031900080E890E00FB6F89480936100909361000E
:1031A0000FBE0E94711608950E94001B0E945D1BB5
:1031B000E2EEF0E080818460808378940E94E01DDC
:1031C00008958CE091E00E94AD14089580918402EE
:1031D000853031F480918402853019F00E94EB161D
:1031E00008950E94C01680918202882399F30E945C
:1031F0007E16882379F30E9462190E94BA05EACFED
:1032000008959A0140918B0250918C020E940919F5
:103210000895AC01CB01D901252F33272330310587
:10322000E1F058F421303105C9F122303105D9F1EE
:1032300080E090E020E030E01EC02132310521F135
:1032400022323105A9F7892BC1F16130710581F76F
:1032500086EB90E023E431E00EC0CA0199274130AB
:1032600069F08230910569F0E2EFF0E0892B01F717
:10327000849190E09F012D933C930895E4EEF0E05B
:10328000F7CFE4EDF0E0F4CF892B91F061307105D8
:1032900079F689E090E021E231E0EDCF82E190E043
:1032A00021E331E0E8CF8BE390E026EF30E0E3CF9D
:1032B00089E090E028E031E0DECF84E490E029EF7F
:1032C00031E0D9CF80E189BD82E189BD09B400FE3A
:1032D000FDCF8091D8008F7D8093D8008091E00051
:1032E00082608093E0008091E00081FDFCCF089532
:1032F000AF92BF92CF92DF92FF920F931F93CF9323
:10330000DF936C01EB018A010E94CF1AF82E811124
:1033100023C00115110539F0F80180819181C81B86
:10332000D90BC80ED91EA12CB12C2097A9F08091E1
:10333000E80085FD22C08091E8008E778093E80048
:1033400001151105A1F0F801808191818A0D9B1D65
:103350009183808385E0F82E8F2DDF91CF911F918F
:103360000F91FF90DF90CF90BF90AF9008950E9493
:10337000CF1A8823E1F2F82EEFCFF60181916F0189
:103380008093F1002197FFEFAF1ABF0ACECFFC0167
:103390009B0180918B0290918C028617970718F001
:1033A000672B61F0C90140E0009771F441110CC036
:1033B0008091E80082FF35C080E008958091E800A8
:1033C0008E778093E800EECF209184022223A9F12A
:1033D0002530A9F12091E80023FD2DC02091E800BF
:1033E00022FDE6CF2091E80020FFDECF3091F300F0
:1033F0002091F200009719F02830310558F041E093
:103400002830310509F040E02091E8002E77209324
:10341000E800CACF41914093F10001972F5F3F4FE1
:10342000E9CF80918402882341F0853041F080917A
:10343000E80083FFBDCF81E0089582E0089583E036
:103440000895FC019B0180918B0290918C0286175C
:10345000970718F0672B61F0C90140E0009771F4FD
:1034600041110CC08091E80082FF36C080E00895D1
:103470008091E8008E778093E800EECF209184025F
:103480002223B1F12530B1F12091E80023FD2EC0B7
:103490002091E80022FDE6CF2091E80020FFDECF5A
:1034A0003091F3002091F200009719F02830310597
:1034B00058F041E02830310509F040E02091E80063
:1034C0002E772093E800CACF44914093F1003196C3
:1034D00001972F5F3F4FE8CF80918402882341F00E
:1034E000853041F08091E80083FFBCCF81E00895F2
:1034F00082E0089583E00895982F973028F08F7028
:103500008093E90081E008959093E900242F762FBD
:1035100050E0981731F07091EC002091ED0050913F
:10352000F00021FD02C09F5FE8CF3091EB003E7FAD
:103530003093EB003091ED003D7F3093ED00309102
:10354000EB0031603093EB007093EC002093ED00C2
:103550005093F0002091EE0027FDE5CF80E0089524
:103560008091850287FF13C08091E80082FF06C02A
:103570008091E8008B778093E80004C080918402FA
:103580008111F2CF0895809184028823D9F380912C
:10359000E80080FFF8CF8091E8008E77ECCF209193
:1035A000E4003091E50095E6A9018091EC0081707E
:1035B000882331F08091E80080FF06C080E0089504
:1035C0002091E80022FD1BC080918402882391F0A5
:1035D000853091F08091EB0085FD10C02091E400D2
:1035E0003091E5004217530701F391509111DCCF60
:1035F00084E0089582E0089583E0089581E00895CD
:103600000E946F1B0E94771BE0EEF0E080818160DA
:103610008083E8EDF0E080818F77808319BCA7ED8F
:10362000B0E08C918E7F8C9380818F7E808310920E
:10363000830208950F931F93CF93DF930E946F1B14
:103640000E94771BC8EDD0E088818F7788838881BE
:103650008068888388818F7D888319BC109284025A
:1036600010928002109282021092810200EE10E00D
:10367000F80180818B7F808388818160888342E02C
:1036800060E080E00E947C1AE1EEF0E080818E7FB5
:103690008083E2EEF0E080818160808380818860B9
:1036A0008083F80180818E7F808388818061888318
:1036B000DF91CF911F910F910895E8EDF0E08081A7
:1036C0008F7E8083E7EDF0E080818160808384E0FD
:1036D00082BF81E0809383020E941A1B0895E8ED67
:1036E000F0E080818E7F80831092E2000895109236
:1036F000DA001092E10008951F920F920FB60F9218
:1037000011242F933F934F935F936F937F938F93E6
:103710009F93AF93BF93EF93FF938091E10082FF5C
:103720000BC08091E20082FF07C08091E1008B7F97
:103730008093E1000E94DF1D8091DA0080FF19C0B4
:103740008091D80080FF15C08091DA008E7F809331
:10375000DA008091D90080FF94C080E189BD82E1C8
:1037600089BD09B400FEFDCF81E0809384020E94F0
:10377000C4178091E10080FF19C08091E20080FFB2
:1037800015C08091E2008E7F8093E2008091E2007C
:1037900080618093E2008091D80080628093D8009D
:1037A00019BC85E0809384020E94D8178091E100C3
:1037B00084FF29C08091E20084FF25C080E189BD9B
:1037C00082E189BD09B400FEFDCF8091D8008F7DD4
:1037D0008093D8008091E1008F7E8093E1008091FA
:1037E000E2008F7E8093E2008091E200816080930E
:1037F000E20080918002882309F449C084E080932C
:1038000084020E94E1178091E10083FF29C080912A
:10381000E20083FF25C08091E100877F8093E10073
:1038200082E080938402109280028091E1008E7F7A
:103830008093E1008091E2008E7F8093E20080918E
:10384000E20080618093E20042E060E080E00E945C
:103850007C1A8091F00088608093F0000E94D51758
:10386000FF91EF91BF91AF919F918F917F916F9158
:103870005F914F913F912F910F900FBE0F901F902E
:10388000189519BC109284020E94D21772CF8091B1
:10389000E30087FF02C083E0B2CF81E0B0CF1F9288
:1038A0000F920FB60F921124FF920F931F932F9335
:1038B0003F934F935F936F937F938F939F93AF93B8
:1038C000BF93CF93DF93EF93FF9309EE10E0F801DE
:1038D0008081C091EC00C795CC27C7958F70FC2ED6
:1038E000F82A1082C0EFD0E08881877F888378949F
:1038F0000E94981CF8011082888188608883CF2DEF
:10390000CF70C083FF91EF91DF91CF91BF91AF91C5
:103910009F918F917F916F915F914F913F912F91E7
:103920001F910F91FF900F900FBE0F901F90189551
:10393000AAE2B0E0EEE9FCE10C94231E85E892E0F7
:10394000FC0101962091F100208322E08D3892073E
:10395000B9F70E9401188091E80083FF38C0809178
:103960008502909186029A3090F5E92FF0E0E05FB1
:10397000F04E0C940E1E803889F0823841F580910B
:1039800089028F70873018F58093E9008091EB00F1
:1039900085FB882780F91092E90006C0809181029A
:1039A00090918202911182609091E800977F9093AC
:1039B000E8008093F1001092F1008091E8008E778A
:1039C00023C0811116C080918702813011F180914E
:1039D000E80083FF0AC08091E800877F8093E800B9
:1039E0008091EB0080628093EB00AA96E3E00C9458
:1039F0003F1E823061F780918702882389F0109200
:103A0000E9008091E800877F8093E8000E94B01A67
:103A1000DECF81E0933009F080E080938202EFCF27
:103A2000809189028F702FEF280F263080F68093C7
:103A3000E9002091EB0020FFE2CF933031F4809138
:103A4000EB0080628093EB00DACF9091EB00906105
:103A50009093EB0021E030E0A90102C0440F551F14
:103A60008A95E2F74093EA001092EA008091EB0019
:103A70008860E8CF8111ABCF109187021F778091CA
:103A8000E3008078812B8093E3008091E800877FBA
:103A90008093E8000E94B01A8091E80080FFFCCF7C
:103AA0008091E30080688093E30083E0111101C0FE
:103AB00082E0809384028BCF8058823008F087CFD9
:103AC00080918702909188028C3D53E0950799F58B
:103AD00083E08A838AE289834FB7F894DE011396E4
:103AE00020E03EE051E2E32FF0E050935700849154
:103AF00020FF03C082958F703F5F8F708A30C8F0BF
:103B0000895C90E08D939D932F5F243161F74FBFC7
:103B10008091E800877F8093E8006AE270E0CE0140
:103B200001960E94C7198091E8008B778093E80086
:103B30004ECF805DE6CF6091890270918A02AE011E
:103B40004F5F5F4F0E940119BC01892B09F43FCFE1
:103B50008091E800877F8093E80089819A810E94A4
:103B6000211AE1CF803809F032CF8091E800877FB9
:103B70008093E800809180028093F1001ECF811134
:103B800026CF90918702923008F021CF8091E800F3
:103B9000877F8093E800909380020E94B01A809102
:103BA0008002882331F084E0809384020E94EC1725
:103BB0000ECF8091E30087FDF6CF81E0F5CF089529
:103BC000CF9380918402882399F08091E900C0917D
:103BD000EC00C795CC27C7958F70C82B1092E900D1
:103BE0008091E80083FD0E94981CCF70C093E9008B
:103BF000CF91089597FB072E16F4009407D077FD18
:103C000009D00E944B1E07FC05D03EF4909581958B
:103C10009F4F0895709561957F4F0895EE0FFF1F98
:103C20000590F491E02D09942F923F924F925F926C
:103C30006F927F928F929F92AF92BF92CF92DF92BC
:103C4000EF92FF920F931F93CF93DF93CDB7DEB721
:103C5000CA1BDB0B0FB6F894DEBF0FBECDBF0994B5
:103C60002A88398848885F846E847D848C849B840C
:103C7000AA84B984C884DF80EE80FD800C811B811A
:103C8000AA81B981CE0FD11D0FB6F894DEBF0FBE49
:103C9000CDBFED010895AA1BBB1B51E107C0AA1FB0
:103CA000BB1FA617B70710F0A61BB70B881F991FDD
:103CB0005A95A9F780959095BC01CD010895FB0117
:103CC000DC0104C08D910190801921F441505040D5
:103CD000C8F7881B990B0895FB01DC0102C0019015
:103CE0000D9241505040D8F70895F999FECF92BDFA
:103CF00081BDF89A992780B50895A8E1B0E042E027
:103D000050E00C94B91EDC01A40FB51F4150504087
:103D100048F0CB01840F951F2E910E94941E4150B4
:103D20005040D0F70895262FF999FECF92BD81BD5E
:103D3000F89A019700B4021639F01FBA20BD0FB6E9
:103D4000F894FA9AF99A0FBE08950396272F0E94C5
:103D5000941E0E94931E252F0E94941E242F0C94C3
:103D6000941E0196272F0E94941E0C94931EDC0132
:103D7000CB01FC01F999FECF06C0F2BDE1BDF89A76
:103D8000319600B40D9241505040B8F70895F89420
:103D9000FFCFA903A903F003F00355047204D8036D
:103DA000D8037704EE04FF04FF04E3105711EB106F
:103DB000B510B910EF10BD10F310FF10C91050115D
:103DC000CD100311D11007112F11D5100B11361181
:103DD000DB1011111911C110F710C510FB10DF1005
:103DE000151125113F114E11AF10E7105E111D1274
:103DF000201226123B123B123B123B123B123B128B
:103E00003B123B1229122E123212381249124F1253
:103E1000531288148E147814821494149A14A014D3
:103E2000BB1CE11CE71CE11CE71C3A1D5C1DE71CE8
:043E3000B21DBF1DE3
:103E340010023002280850011E0A14017117AD1730
:103E4400A6179F17981701E200E900EA00B500B62B
:103E540000B700CD008301CC008A019201940121B6
:103E640002230224022502260227022A02B300B4F6
:103E7400006F0070009F01CB019F02A002E200E9E5
:103E840000EA00B500B600B700CD008301CC008A7B
:103E94000192019401210223022402250226022711
:103EA400022A02B300B4006F0070009F01CB019F8F
:0C3EB40002A0029190946697C63435F489
:00000001FF
